:020000040800F2
:100000000050002059020008A1020008A1020008C7
:10001000A1020008A1020008A102000800000000DF
:10002000000000000000000000000000A102000825
:10003000A102000800000000A1020008A1020008BF
:10004000A1020008A1020008A1020008A102000804
:10005000A1020008A1020008A1020008A1020008F4
:10006000A1020008A1020008A1020008A1020008E4
:10007000A1020008A1020008A1020008A1020008D4
:10008000A1020008A1020008A1020008A1020008C4
:10009000A1020008A1020008A1020008A1020008B4
:1000A000A1020008A1020008A1020008A1020008A4
:1000B000A1020008A1020008A1020008A102000894
:1000C000A1020008A1020008A1020008A102000884
:1000D000A1020008A1020008A1020008A102000874
:1000E000A1020008A1020008A1020008000000000F
:1000F0000000000000000000000000000000000000
:0C01000000000000000000005FF808F1A3
:10010C0010B5054C237833B9044B13B10448AFF345
:10011C0000800123237010BD0000002000000000AF
:10012C00EC02000808B5034B1BB103490348AFF3BD
:10013C00008008BD0000000004000020EC02000854
:10014C0080B400AF034B4FF400521A6100BFBD46A0
:10015C0080BC70470010014080B400AF034B4FF4DB
:10016C0000525A6100BFBD4680BC70470010014070
:10017C0080B582B000AF00F01BF800F041F8FFF73B
:10018C00DFFF00237B6002E07B6801337B607B68D0
:10019C00B3F5804FF8DBFFF7DFFF00237B6002E055
:1001AC007B6801337B607B68B3F5804FF8DBE6E757
:1001BC0080B400AF114B1B68104A43F0010313606D
:1001CC000E4B5B680D4A23F47F5323F030035360CE
:1001DC000A4B5B68094A23F003035360074B074A39
:1001EC005B68536000BF054B5B6803F00C03002B8E
:1001FC00F9D100231846BD4680BC70470010024060
:10020C0080B400AF0C4B9B690B4A43F01003936115
:10021C000A4B5B68094A23F470035360074B5B6815
:10022C00064A43F480135360044B4FF400525A6156
:10023C0000BFBD4680BC704700100240001001405A
:10024C0080B400AF00BFBD4680BC70470C480D4960
:10025C000D4A002302E0D458C4500433C4188C4215
:10026C00F9D30A4A0A4C002301E013600432A2427B
:10027C00FBD3FFF7E5FF00F00FF8FFF779FF7047AE
:10028C0000000020000000200C03000800000020EB
:10029C001C000020FEE7000070B500260C4D0D4C34
:1002AC00641BA410A64209D100F01AF800260A4DCE
:1002BC000A4C641BA410A64205D170BD55F8043B32
:1002CC0098470136EEE755F8043B98470136F2E7BC
:1002DC0004030008040300080403000808030008D2
:1002EC00F8B500BFF8BC08BC9E467047F8B500BF17
:0802FC00F8BC08BC9E467047E7
:0403040031010008BB
:040308000D010008DB
:040000050800025994
:00000001FF
