:020000040800F2
:10000000005000205D030008A5030008A5030008B8
:10001000A5030008A5030008A503000800000000D0
:10002000000000000000000000000000A503000820
:10003000A503000800000000A5030008A5030008B0
:10004000A5030008A5030008A5030008A5030008F0
:10005000A5030008A5030008A5030008A5030008E0
:10006000A5030008A5030008A5030008A5030008D0
:10007000A5030008A5030008A5030008A5030008C0
:10008000A5030008A5030008A5030008A5030008B0
:10009000A5030008A5030008A5030008A5030008A0
:1000A000A5030008A5030008A5030008A503000890
:1000B0004D010008A5030008A5030008A5030008DA
:1000C000A5030008A5030008A5030008A503000870
:1000D000A5030008A5030008A5030008A503000860
:1000E000A5030008A5030008A50300080000000000
:1000F0000000000000000000000000000000000000
:0C01000000000000000000005FF808F1A3
:10010C0010B5054C237833B9044B13B10448AFF345
:10011C0000800123237010BD0000002000000000AF
:10012C00F003000808B5034B1BB103490348AFF3B8
:10013C00008008BD0000000004000020F00300084F
:10014C0080B500AF4FF080431B6903F00103002B17
:10015C0012D04FF080431B694FF0804223F0010313
:10016C001361064BDB6803F40053002B02D100F043
:10017C0007F801E000F010F800BF80BD001001404E
:10018C0080B400AF034B4FF400521A6100BFBD4660
:10019C0080BC70470010014080B400AF034B4FF49B
:1001AC0000525A6100BFBD4680BC70470010014030
:1001BC0080B500AF00F022F800F048F800F066F8C7
:1001CC00FEE7000080B483B000AF0346FB7197F9E3
:1001DC000730002B0BDBFB7903F01F02064997F964
:1001EC0007305B09012000FA02F241F8232000BF1E
:1001FC000C37BD4680BC704700E100E080B400AF16
:10020C00114B1B68104A43F0010313600E4B5B68E3
:10021C000D4A23F47F5323F0300353600A4B5B6881
:10022C00094A23F003035360074B074A5B6853608A
:10023C0000BF054B5B6803F00C03002BF9D10023C6
:10024C001846BD4680BC70470010024080B400AF19
:10025C000C4B9B690B4A43F0100393610A4B5B6890
:10026C00094A23F470035360074B5B68064A43F456
:10027C0080135360044B4FF400525A6100BFBD46CB
:10028C0080BC7047001002400010014080B500AFE8
:10029C002B4BDB692A4A43F00103D3614FF08043B7
:1002AC001B684FF0804223F0020313604FF0804331
:1002BC001B684FF0804243F0800313604FF0804383
:1002CC001B684FF0804223F0040313604FF080430F
:1002DC001B684FF0804243F0800313604FF0804363
:1002EC00DB684FF0804243F00103D3604FF0804352
:1002FC0040F21F329A624FF0804342F20F72DA6280
:10030C004FF080439B694FF0804223F003039361CD
:10031C004FF080439B6923F070034FF0804243F011
:10032C00600393611C20FFF74DFF4FF080431B6867
:10033C004FF0804243F00103136000BF80BD00BF4B
:10034C000010024080B400AF00BFBD4680BC7047B7
:10035C000C480D490D4A002302E0D458C450043314
:10036C00C4188C42F9D30A4A0A4C002301E01360EA
:10037C000432A242FBD3FFF7E5FF00F00FF8FFF7C2
:10038C0017FF704700000020000000201004000838
:10039C00000000201C000020FEE7000070B50026C5
:1003AC000C4D0D4C641BA410A64209D100F01AF898
:1003BC0000260A4D0A4C641BA410A64205D170BD40
:1003CC0055F8043B98470136EEE755F8043B98473F
:1003DC000136F2E7080400080804000808040008C5
:1003EC000C040008F8B500BFF8BC08BC9E4670476A
:0C03FC00F8B500BFF8BC08BC9E46704776
:0404080031010008B6
:04040C000D010008D6
:040000050800035D8F
:00000001FF
