:020000040800F2
:10000000005000204D0800089508000895080008D9
:1000100095080008950800089508000800000000F1
:10002000000000000000000000000000950800082B
:1000300095080008000000009508000895080008D1
:10004000950800089508000895080008950800081C
:10005000950800089508000895080008950800080C
:1000600095080008950800089508000895080008FC
:1000700095080008950800089508000895080008EC
:1000800095080008950800089508000895080008DC
:1000900095080008950800089508000895080008CC
:1000A00095080008950800089508000895080008BC
:1000B00051070008DD0700089508000895080008AA
:1000C000950800089508000895080008950800089C
:1000D000950800089508000895080008950800088C
:1000E0009508000895080008950800080000000021
:1000F0000000000000000000000000000000000000
:0C01000000000000000000005FF808F1A3
:10010C0010B5054C237833B9044B13B10448AFF345
:10011C0000800123237010BD0000002000000000AF
:10012C00E008000808B5034B1BB103490348AFF3C3
:10013C00008008BD0000000004000020E00800085A
:10014C0080B500AF00F008F800F096F800F03CFA2B
:10015C0000F014FBFEE7000080B400AF444B1B68BA
:10016C00434A43F00103136000BF414B1B6803F08B
:10017C000203002BF9D03E4B1B683D4A43F48033FD
:10018C00136000BF3A4B1B6803F40033002BF9D00B
:10019C00374B1B68364A43F400231360344B5B68BF
:1001AC00334A23F47F5323F030035360304B5B68A6
:1001BC002F4A23F0030353602D4B5B6823F003039A
:1001CC002B4A43F002035360294B5B68284A23F007
:1001DC00F0035360274B1B6823F00703254A43F0B9
:1001EC0004031360234B1B68224A43F01003136073
:1001FC001F4B5B6823F4E0631D4A43F48063536038
:10020C001B4B5B681A4A23F460535360184B5B68B2
:10021C0023F44043164A43F400435360144B5B6889
:10022C00134A43F480335360114B114A5B6853609B
:10023C000F4B5B6823F470130D4A43F4E0135360C7
:10024C000B4B5B680A4A23F480035360084B1B6812
:10025C00074A43F08073136000BF054B1B6803F023
:10026C000073002BF9D000231846BD4680BC7047A4
:10027C00001002400020024080B400AF1C4B9B6970
:10028C001B4A43F010039361194B9B69184A43F0C6
:10029C0004039361164B9B69154A43F00803936161
:1002AC00144B5B68134A23F470035360114B5B6867
:1002BC00104A43F4801353600F4B5B680E4A23F4CF
:1002CC00704353600C4B5B680B4A43F48053536090
:1002DC00094B5B68084A23F470635360064B5B68F8
:1002EC00054A43F48073536000BFBD4680BC704721
:1002FC000010024000100140000C014080B483B09B
:10030C0000AF0346FB71FB79032B2FD801A252F8E7
:10031C0023F000BF31030008430300085503000815
:10032C0067030008144B4FF480621A61124B4FF4B0
:10033C0000621A611AE0104B4FF400625A610E4BC6
:10034C004FF480625A6111E00B4B4FF400621A615A
:10035C00094B4FF480625A6108E0074B4FF48062FE
:10036C001A61054B4FF400625A6100BF00BF0C3795
:10037C00BD4680BC704700BF000C014090B484B0F7
:10038C0000AF3B1D83E807000E4B1B68092B13DCE9
:10039C000C4B1A680C4913465B0013449B000B442E
:1003AC001C463B1D93E8070084E80700054B1B68BF
:1003BC000133044A136000E000BF1037BD4690BC07
:1003CC00704700BF9C0000201C00002080B483B04C
:1003DC0000AF01237B6015E07B685A1E0F49134662
:1003EC005B0013449B00C8180C497A6813465B00E9
:1003FC0013449B00CA18034607CA83E807007B68AE
:10040C0001337B60064B1B687A689A42E4DB00BFC1
:10041C0000BF0C37BD4680BC704700BF1C000020DD
:10042C009C00002080B58CB000AF394B4FF40052CB
:10043C005A61384B1B68002B39D1374B00221A609C
:10044C00364B00221A60364A07F1240307CA83E8A8
:10045C00070007F1240393E80700FFF78FFF314AE9
:10046C0007F1180307CA83E8070007F1180393E89C
:10047C000700FFF783FF00233B7300237B730023EC
:10048C00BB734FF4FA733B6100233B7507F10C030C
:10049C0093E80700FFF772FF234A3B4607CA83E83D
:1004AC0007003B4693E80700FFF768FF2DE01A4B67
:1004BC001B68002B0AD11D4B1B7A1846FFF71EFF39
:1004CC00154B32221A600A2000F098F9134B1B6866
:1004DC000133124A1360154B5A68104B1B689A4231
:1004EC0013DCFFF773FF0B4B1B68013B094A1360CE
:1004FC00094B00221A60094B00221A60044B4FF47E
:10050C0000521A61642000F079F93037BD4680BD85
:10051C00001001409C000020940000209800002056
:10052C00F808000804090008100900081C00002045
:10053C0080B400AF00BFBD4680BC704780B483B0B0
:10054C0000AF0346FB7197F90730002B0BDBFB79EF
:10055C0003F01F02064997F907305B09012000FAE6
:10056C0002F241F8232000BF0C37BD4680BC704717
:10057C0000E100E080B483B000AF03463960FB714A
:10058C0097F90730002B0ADB3B68DAB20C4997F974
:10059C0007301201D2B20B4483F800230AE03B6807
:1005AC00DAB20849FB7903F00F03043B1201D2B213
:1005BC000B441A7600BF0C37BD4680BC704700BF99
:1005CC0000E100E000ED00E080B500AF5A4BDB69C4
:1005DC00594A43F00103D361584B5B68574A23F4E3
:1005EC0040735360544B9B69534A43F0010393612E
:1005FC004FF080431B684FF0804223F002031360DE
:10060C004FF080431B684FF0804243F0800313602F
:10061C004FF080431B684FF0804223F004031360BB
:10062C004FF080431B684FF0804243F0800313600F
:10063C004FF080430022DA604FF08043DB684FF0CC
:10064C00804243F00203D3604FF08043DB684FF0ED
:10065C00804243F00103D3604FF080434FF4347277
:10066C009A624FF080436322DA624FF080439B69B9
:10067C004FF0804223F0030393614FF080439B695A
:10068C0023F070034FF0804243F0600393612C4BD6
:10069C001B682B4A43F003031360294B1B68284A41
:1006AC0043F008031360264B1B68254A23F0040310
:1006BC0013604FF080439B694FF0804223F003039B
:1006CC0093614FF080439B694FF0804243F00803E5
:1006DC0093614FF080439B6923F070034FF080428D
:1006EC0043F0600393614FF0804300221A624FF095
:1006FC0080431B6A4FF0804243F0010313624FF0BA
:10070C0080431B6A4FF0804223F0020313624FF0C8
:10071C00804331225A631C20FFF710FF01211C205B
:10072C00FFF728FF4FF080431B684FF0804243F0E7
:10073C000103136000BF80BD0010024000000140A7
:10074C000008014080B500AF4FF080431B6903F0F7
:10075C000203002B0ED04FF080431B694FF08042F8
:10076C0023F002031361FFF75DFE034B1A684FF091
:10077C0080435A6300BF80BD9400002080B500AF59
:10078C00114B00229A62104B0122DA620F4BDB698B
:10079C000E4A43F00203D3610B4B1B680A4A43F029
:1007AC0004031360084B5B69074A43F00103536170
:1007BC00054BDB68044A43F00103D3601D20FFF7AF
:1007CC00BDFE00BF80BD00BF000400400010024011
:1007DC0080B400AF074B1B680133064A1360064B0D
:1007EC001B69054A23F00103136100BFBD4680BCA1
:1007FC00704700BFA00000200004004080B483B00C
:10080C0000AF78600C4B00221A600C4B1B680B4A33
:10081C0043F00103136000BF074B1B687A689A42D0
:10082C00FADC064B1B68054A23F00103136000BF7A
:10083C000C37BD4680BC7047A0000020000400406F
:10084C000C480D490D4A002302E0D458C45004331F
:10085C00C4188C42F9D30A4A0A4C002301E01360F5
:10086C000432A242FBD3FFF763FE00F00FF8FFF750
:10087C0067FC7047000000200000002024090008DD
:10088C0000000020A4000020FEE7000070B5002648
:10089C000C4D0D4C641BA410A64209D100F01AF8A3
:1008AC0000260A4D0A4C641BA410A64205D170BD4B
:1008BC0055F8043B98470136EEE755F8043B98474A
:1008CC000136F2E71C0900081C0900081C09000885
:1008DC0020090008F8B500BFF8BC08BC9E4670475C
:0C08EC00F8B500BFF8BC08BC9E46704781
:1008F80000000000F40100000100000000000000FA
:10090800F40100000300000000000000F4010000F2
:0409180002000000D9
:04091C00310100089D
:040920000D010008BD
:040000050800084D9A
:00000001FF
