:020000040800F2
:10000000005000204D0400089504000895040008E5
:1000100095040008950400089504000800000000FD
:10002000000000000000000000000000950400082F
:1000300095040008000000009504000895040008DD
:10004000950400089504000895040008950400082C
:10005000950400089504000895040008950400081C
:10006000950400089504000895040008950400080C
:1000700095040008950400089504000895040008FC
:1000800095040008950400089504000895040008EC
:1000900095040008950400089504000895040008DC
:1000A00095040008950400089504000895040008CC
:1000B00055030008DD0300089504000895040008B6
:1000C00095040008950400089504000895040008AC
:1000D000950400089504000895040008950400089C
:1000E000950400089504000895040008000000002D
:1000F0000000000000000000000000000000000000
:0C01000000000000000000005FF808F1A3
:10010C0010B5054C237833B9044B13B10448AFF345
:10011C0000800123237010BD0000002000000000AF
:10012C00E004000808B5034B1BB103490348AFF3C7
:10013C00008008BD0000000004000020E00400085E
:10014C0080B400AF034B4FF400521A6100BFBD46A0
:10015C0080BC70470010014080B400AF034B4FF4DB
:10016C0000525A6100BFBD4680BC70470010014070
:10017C0080B500AF00F010F800F09EF800F0FEF82B
:10018C00FFF7DEFF642000F039F9FFF7E5FF64208C
:10019C0000F034F9F4E7000080B400AF444B1B6866
:1001AC00434A43F00103136000BF414B1B6803F04B
:1001BC000203002BF9D03E4B1B683D4A43F48033BD
:1001CC00136000BF3A4B1B6803F40033002BF9D0CB
:1001DC00374B1B68364A43F400231360344B5B687F
:1001EC00334A23F47F5323F030035360304B5B6866
:1001FC002F4A23F0030353602D4B5B6823F003035A
:10020C002B4A43F002035360294B5B68284A23F0C6
:10021C00F0035360274B1B6823F00703254A43F078
:10022C0004031360234B1B68224A43F01003136032
:10023C001F4B5B6823F4E0631D4A43F480635360F7
:10024C001B4B5B681A4A23F460535360184B5B6872
:10025C0023F44043164A43F400435360144B5B6849
:10026C00134A43F480335360114B114A5B6853605B
:10027C000F4B5B6823F470130D4A43F4E013536087
:10028C000B4B5B680A4A23F480035360084B1B68D2
:10029C00074A43F08073136000BF054B1B6803F0E3
:1002AC000073002BF9D000231846BD4680BC704764
:1002BC00001002400020024080B400AF0F4B9B693D
:1002CC000E4A43F0100393610C4B9B690B4A43F0AD
:1002DC00040393610A4B5B68094A23F4700353606F
:1002EC00074B5B68064A43F480135360044B4FF48E
:1002FC0000525A6100BFBD4680BC704700100240DE
:10030C000010014080B400AF00BFBD4680BC7047F8
:10031C0080B483B000AF0346FB7197F90730002B14
:10032C000BDBFB7903F01F02064997F907305B09D9
:10033C00012000FA02F241F8232000BF0C37BD4621
:10034C0080BC704700E100E080B500AF4FF0804307
:10035C001B6903F00203002B0ED04FF080431B6986
:10036C004FF0804223F002031361FFF7E9FE642093
:10037C0000F044F8FFF7F0FE00BF80BD80B500AF81
:10038C00114B00229A62104B0122DA620F4BDB698F
:10039C000E4A43F00203D3610B4B1B680A4A43F02D
:1003AC0004031360084B5B69074A43F00103536174
:1003BC00054BDB68044A43F00103D3601D20FFF7B3
:1003CC00A7FF00BF80BD00BF00040040001002402A
:1003DC0080B400AF074B1B680133064A1360064B11
:1003EC001B69054A23F00103136100BFBD4680BCA5
:1003FC00704700BF1C0000200004004080B483B094
:10040C0000AF78600C4B00221A600C4B1B680B4A37
:10041C0043F00103136000BF074B1B687A689A42D4
:10042C00FADC064B1B68054A23F00103136000BF7E
:10043C000C37BD4680BC70471C00002000040040F7
:10044C000C480D490D4A002302E0D458C450043323
:10045C00C4188C42F9D30A4A0A4C002301E01360F9
:10046C000432A242FBD3FFF74DFF00F00FF8FFF769
:10047C007FFE7047000000200000002000050008EF
:10048C000000002020000020FEE7000070B50026D0
:10049C000C4D0D4C641BA410A64209D100F01AF8A7
:1004AC0000260A4D0A4C641BA410A64205D170BD4F
:1004BC0055F8043B98470136EEE755F8043B98474E
:1004CC000136F2E7F8040008F8040008F804000804
:1004DC00FC040008F8B500BFF8BC08BC9E46704789
:0C04EC00F8B500BFF8BC08BC9E46704785
:0404F80031010008C6
:0404FC000D010008E6
:040000050800044D9E
:00000001FF
